{
  "_format": "hh-sol-artifact-1",
  "contractName": "GalleryContract",
  "sourceName": "contracts/GalleryContract.sol",
  "abi": [
    {
      "inputs": [
        {
          "internalType": "string",
          "name": "name",
          "type": "string"
        },
        {
          "internalType": "string",
          "name": "uid",
          "type": "string"
        }
      ],
      "name": "createUser",
      "outputs": [],
      "stateMutability": "nonpayable",
      "type": "function"
    },
    {
      "inputs": [],
      "name": "getAllUser",
      "outputs": [
        {
          "components": [
            {
              "internalType": "string",
              "name": "name",
              "type": "string"
            },
            {
              "internalType": "string",
              "name": "uid",
              "type": "string"
            },
            {
              "components": [
                {
                  "internalType": "string",
                  "name": "url",
                  "type": "string"
                },
                {
                  "internalType": "string",
                  "name": "title",
                  "type": "string"
                },
                {
                  "internalType": "string",
                  "name": "description",
                  "type": "string"
                }
              ],
              "internalType": "struct GalleryContract.Image[]",
              "name": "imageList",
              "type": "tuple[]"
            }
          ],
          "internalType": "struct GalleryContract.UserData[]",
          "name": "",
          "type": "tuple[]"
        }
      ],
      "stateMutability": "view",
      "type": "function"
    },
    {
      "inputs": [
        {
          "internalType": "string",
          "name": "uid",
          "type": "string"
        }
      ],
      "name": "getCurrentUser",
      "outputs": [
        {
          "components": [
            {
              "internalType": "string",
              "name": "name",
              "type": "string"
            },
            {
              "internalType": "string",
              "name": "uid",
              "type": "string"
            },
            {
              "components": [
                {
                  "internalType": "string",
                  "name": "url",
                  "type": "string"
                },
                {
                  "internalType": "string",
                  "name": "title",
                  "type": "string"
                },
                {
                  "internalType": "string",
                  "name": "description",
                  "type": "string"
                }
              ],
              "internalType": "struct GalleryContract.Image[]",
              "name": "imageList",
              "type": "tuple[]"
            }
          ],
          "internalType": "struct GalleryContract.UserData",
          "name": "",
          "type": "tuple"
        }
      ],
      "stateMutability": "view",
      "type": "function"
    },
    {
      "inputs": [
        {
          "internalType": "string",
          "name": "title",
          "type": "string"
        },
        {
          "internalType": "string",
          "name": "description",
          "type": "string"
        },
        {
          "internalType": "string",
          "name": "url",
          "type": "string"
        },
        {
          "internalType": "string",
          "name": "uid",
          "type": "string"
        }
      ],
      "name": "uploadedImage",
      "outputs": [],
      "stateMutability": "nonpayable",
      "type": "function"
    }
  ],
  "bytecode": "0x608060405234801561001057600080fd5b506118e5806100206000396000f3fe608060405234801561001057600080fd5b506004361061004c5760003560e01c806309ef97061461005157806334ef36401461008157806347531df81461009d57806387b162b5146100bb575b600080fd5b61006b60048036038101906100669190610dc0565b6100d7565b6040516100789190611006565b60405180910390f35b61009b60048036038101906100969190611028565b610528565b005b6100a56106b7565b6040516100b2919061121f565b60405180910390f35b6100d560048036038101906100d09190611241565b610a4f565b005b6100df610b0a565b60005b6000805490508110156104e7578260405160200161010091906112f5565b604051602081830303815290604052805190602001206000828154811061012a5761012961130c565b5b906000526020600020906003020160010160405160200161014b9190611433565b60405160208183030381529060405280519060200120036104d4576000818154811061017a5761017961130c565b5b90600052602060002090600302016040518060600160405290816000820180546101a39061136a565b80601f01602080910402602001604051908101604052809291908181526020018280546101cf9061136a565b801561021c5780601f106101f15761010080835404028352916020019161021c565b820191906000526020600020905b8154815290600101906020018083116101ff57829003601f168201915b505050505081526020016001820180546102359061136a565b80601f01602080910402602001604051908101604052809291908181526020018280546102619061136a565b80156102ae5780601f10610283576101008083540402835291602001916102ae565b820191906000526020600020905b81548152906001019060200180831161029157829003601f168201915b5050505050815260200160028201805480602002602001604051908101604052809291908181526020016000905b828210156104c4578382906000526020600020906003020160405180606001604052908160008201805461030f9061136a565b80601f016020809104026020016040519081016040528092919081815260200182805461033b9061136a565b80156103885780601f1061035d57610100808354040283529160200191610388565b820191906000526020600020905b81548152906001019060200180831161036b57829003601f168201915b505050505081526020016001820180546103a19061136a565b80601f01602080910402602001604051908101604052809291908181526020018280546103cd9061136a565b801561041a5780601f106103ef5761010080835404028352916020019161041a565b820191906000526020600020905b8154815290600101906020018083116103fd57829003601f168201915b505050505081526020016002820180546104339061136a565b80601f016020809104026020016040519081016040528092919081815260200182805461045f9061136a565b80156104ac5780601f10610481576101008083540402835291602001916104ac565b820191906000526020600020905b81548152906001019060200180831161048f57829003601f168201915b505050505081525050815260200190600101906102dc565b5050505081525050915050610523565b80806104df90611483565b9150506100e2565b506040517f08c379a000000000000000000000000000000000000000000000000000000000815260040161051a90611528565b60405180910390fd5b919050565b60005b600080549050811015610675578160405160200161054991906112f5565b60405160208183030381529060405280519060200120600082815481106105735761057261130c565b5b90600052602060002090600302016001016040516020016105949190611433565b604051602081830303815290604052805190602001200361066257600081815481106105c3576105c261130c565b5b90600052602060002090600302016002016040518060600160405280858152602001878152602001868152509080600181540180825580915050600190039060005260206000209060030201600090919091909150600082015181600001908161062d91906116df565b50602082015181600101908161064391906116df565b50604082015181600201908161065991906116df565b505050506106b1565b808061066d90611483565b91505061052b565b506040517f08c379a00000000000000000000000000000000000000000000000000000000081526004016106a890611528565b60405180910390fd5b50505050565b60606000805480602002602001604051908101604052809291908181526020016000905b82821015610a46578382906000526020600020906003020160405180606001604052908160008201805461070e9061136a565b80601f016020809104026020016040519081016040528092919081815260200182805461073a9061136a565b80156107875780601f1061075c57610100808354040283529160200191610787565b820191906000526020600020905b81548152906001019060200180831161076a57829003601f168201915b505050505081526020016001820180546107a09061136a565b80601f01602080910402602001604051908101604052809291908181526020018280546107cc9061136a565b80156108195780601f106107ee57610100808354040283529160200191610819565b820191906000526020600020905b8154815290600101906020018083116107fc57829003601f168201915b5050505050815260200160028201805480602002602001604051908101604052809291908181526020016000905b82821015610a2f578382906000526020600020906003020160405180606001604052908160008201805461087a9061136a565b80601f01602080910402602001604051908101604052809291908181526020018280546108a69061136a565b80156108f35780601f106108c8576101008083540402835291602001916108f3565b820191906000526020600020905b8154815290600101906020018083116108d657829003601f168201915b5050505050815260200160018201805461090c9061136a565b80601f01602080910402602001604051908101604052809291908181526020018280546109389061136a565b80156109855780601f1061095a57610100808354040283529160200191610985565b820191906000526020600020905b81548152906001019060200180831161096857829003601f168201915b5050505050815260200160028201805461099e9061136a565b80601f01602080910402602001604051908101604052809291908181526020018280546109ca9061136a565b8015610a175780601f106109ec57610100808354040283529160200191610a17565b820191906000526020600020905b8154815290600101906020018083116109fa57829003601f168201915b50505050508152505081526020019060010190610847565b5050505081525050815260200190600101906106db565b50505050905090565b600080600181600181540180825580915050039060005260206000209060030201905082816000019081610a8391906116df565b5081816001019081610a9591906116df565b50600081908060018154018082558091505060019003906000526020600020906003020160009091909190915060008201816000019081610ad691906117c7565b5060018201816001019081610aeb91906117c7565b506002820181600201908054610b02929190610b2b565b505050505050565b60405180606001604052806060815260200160608152602001606081525090565b828054828255906000526020600020906003028101928215610bb15760005260206000209160030282015b82811115610bb057828260008201816000019081610b7491906117c7565b5060018201816001019081610b8991906117c7565b5060028201816002019081610b9e91906117c7565b50505091600301919060030190610b56565b5b509050610bbe9190610bc2565b5090565b5b80821115610c055760008082016000610bdc9190610c09565b600182016000610bec9190610c09565b600282016000610bfc9190610c09565b50600301610bc3565b5090565b508054610c159061136a565b6000825580601f10610c275750610c46565b601f016020900490600052602060002090810190610c459190610c49565b5b50565b5b80821115610c62576000816000905550600101610c4a565b5090565b6000604051905090565b600080fd5b600080fd5b600080fd5b600080fd5b6000601f19601f8301169050919050565b7f4e487b7100000000000000000000000000000000000000000000000000000000600052604160045260246000fd5b610ccd82610c84565b810181811067ffffffffffffffff82111715610cec57610ceb610c95565b5b80604052505050565b6000610cff610c66565b9050610d0b8282610cc4565b919050565b600067ffffffffffffffff821115610d2b57610d2a610c95565b5b610d3482610c84565b9050602081019050919050565b82818337600083830152505050565b6000610d63610d5e84610d10565b610cf5565b905082815260208101848484011115610d7f57610d7e610c7f565b5b610d8a848285610d41565b509392505050565b600082601f830112610da757610da6610c7a565b5b8135610db7848260208601610d50565b91505092915050565b600060208284031215610dd657610dd5610c70565b5b600082013567ffffffffffffffff811115610df457610df3610c75565b5b610e0084828501610d92565b91505092915050565b600081519050919050565b600082825260208201905092915050565b60005b83811015610e43578082015181840152602081019050610e28565b60008484015250505050565b6000610e5a82610e09565b610e648185610e14565b9350610e74818560208601610e25565b610e7d81610c84565b840191505092915050565b600081519050919050565b600082825260208201905092915050565b6000819050602082019050919050565b60006060830160008301518482036000860152610ed18282610e4f565b91505060208301518482036020860152610eeb8282610e4f565b91505060408301518482036040860152610f058282610e4f565b9150508091505092915050565b6000610f1e8383610eb4565b905092915050565b6000602082019050919050565b6000610f3e82610e88565b610f488185610e93565b935083602082028501610f5a85610ea4565b8060005b85811015610f965784840389528151610f778582610f12565b9450610f8283610f26565b925060208a01995050600181019050610f5e565b50829750879550505050505092915050565b60006060830160008301518482036000860152610fc58282610e4f565b91505060208301518482036020860152610fdf8282610e4f565b91505060408301518482036040860152610ff98282610f33565b9150508091505092915050565b600060208201905081810360008301526110208184610fa8565b905092915050565b6000806000806080858703121561104257611041610c70565b5b600085013567ffffffffffffffff8111156110605761105f610c75565b5b61106c87828801610d92565b945050602085013567ffffffffffffffff81111561108d5761108c610c75565b5b61109987828801610d92565b935050604085013567ffffffffffffffff8111156110ba576110b9610c75565b5b6110c687828801610d92565b925050606085013567ffffffffffffffff8111156110e7576110e6610c75565b5b6110f387828801610d92565b91505092959194509250565b600081519050919050565b600082825260208201905092915050565b6000819050602082019050919050565b600060608301600083015184820360008601526111488282610e4f565b915050602083015184820360208601526111628282610e4f565b9150506040830151848203604086015261117c8282610f33565b9150508091505092915050565b6000611195838361112b565b905092915050565b6000602082019050919050565b60006111b5826110ff565b6111bf818561110a565b9350836020820285016111d18561111b565b8060005b8581101561120d57848403895281516111ee8582611189565b94506111f98361119d565b925060208a019950506001810190506111d5565b50829750879550505050505092915050565b6000602082019050818103600083015261123981846111aa565b905092915050565b6000806040838503121561125857611257610c70565b5b600083013567ffffffffffffffff81111561127657611275610c75565b5b61128285828601610d92565b925050602083013567ffffffffffffffff8111156112a3576112a2610c75565b5b6112af85828601610d92565b9150509250929050565b600081905092915050565b60006112cf82610e09565b6112d981856112b9565b93506112e9818560208601610e25565b80840191505092915050565b600061130182846112c4565b915081905092915050565b7f4e487b7100000000000000000000000000000000000000000000000000000000600052603260045260246000fd5b7f4e487b7100000000000000000000000000000000000000000000000000000000600052602260045260246000fd5b6000600282049050600182168061138257607f821691505b6020821081036113955761139461133b565b5b50919050565b60008190508160005260206000209050919050565b600081546113bd8161136a565b6113c781866112b9565b945060018216600081146113e257600181146113f75761142a565b60ff198316865281151582028601935061142a565b6114008561139b565b60005b8381101561142257815481890152600182019150602081019050611403565b838801955050505b50505092915050565b600061143f82846113b0565b915081905092915050565b7f4e487b7100000000000000000000000000000000000000000000000000000000600052601160045260246000fd5b6000819050919050565b600061148e82611479565b91507fffffffffffffffffffffffffffffffffffffffffffffffffffffffffffffffff82036114c0576114bf61144a565b5b600182019050919050565b600082825260208201905092915050565b7f55736572206e6f7420666f756e64000000000000000000000000000000000000600082015250565b6000611512600e836114cb565b915061151d826114dc565b602082019050919050565b6000602082019050818103600083015261154181611505565b9050919050565b60006020601f8301049050919050565b600082821b905092915050565b6000600883026115957fffffffffffffffffffffffffffffffffffffffffffffffffffffffffffffffff82611558565b61159f8683611558565b95508019841693508086168417925050509392505050565b6000819050919050565b60006115dc6115d76115d284611479565b6115b7565b611479565b9050919050565b6000819050919050565b6115f6836115c1565b61160a611602826115e3565b848454611565565b825550505050565b600090565b61161f611612565b61162a8184846115ed565b505050565b5b8181101561164e57611643600082611617565b600181019050611630565b5050565b601f821115611693576116648161139b565b61166d84611548565b8101602085101561167c578190505b61169061168885611548565b83018261162f565b50505b505050565b600082821c905092915050565b60006116b660001984600802611698565b1980831691505092915050565b60006116cf83836116a5565b9150826002028217905092915050565b6116e882610e09565b67ffffffffffffffff81111561170157611700610c95565b5b61170b825461136a565b611716828285611652565b600060209050601f8311600181146117495760008415611737578287015190505b61174185826116c3565b8655506117a9565b601f1984166117578661139b565b60005b8281101561177f5784890151825560018201915060208501945060208101905061175a565b8683101561179c5784890151611798601f8916826116a5565b8355505b6001600288020188555050505b505050505050565b6000815490506117c08161136a565b9050919050565b8181036117d55750506118ad565b6117de826117b1565b67ffffffffffffffff8111156117f7576117f6610c95565b5b611801825461136a565b61180c828285611652565b6000601f83116001811461183b5760008415611829578287015490505b61183385826116c3565b8655506118a6565b601f1984166118498761139b565b96506118548661139b565b60005b8281101561187c57848901548255600182019150600185019450602081019050611857565b868310156118995784890154611895601f8916826116a5565b8355505b6001600288020188555050505b5050505050505b56fea26469706673582212201f2637b040532800bca3908debbb4f6e59cbb79862716cc38c80b780b96b0d0264736f6c63430008120033",
  "linkReferences": {},
  "deployedLinkReferences": {}
}